:100000000C9461000C9489000C9489000C94890074
:100010000C9489000C9489000C9489000C9489003C
:100020000C9489000C9489000C9489000C940F02A4
:100030000C9489000C9489000C9489000C9489001C
:100040000C9447050C9489000C941D080C944F08DF
:100050000C9489000C9489000C9489000C948900FC
:100060000C9489000C948900000000080002010033
:100070000003040700000000000000000102040863
:100080001020408001020408102001020408102002
:10009000040404040404040402020202020203032E
:1000A0000303030300000000250028002B000000CC
:1000B0000000240027002A00030200052F05430545
:1000C0007F0811241FBECFEFD8E0DEBFCDBF11E007
:1000D000A0E0B1E0E6E0FFE102C005900D92A23A97
:1000E000B107D9F723E0A2EAB1E001C01D92AD3813
:1000F000B207E1F710E0C2ECD0E004C02297FE01A5
:100100000E94010DC83BD107C9F70E94C3080C9497
:10011000810F0C94000040ED57E060E070E087ED47
:1001200091E00E94C30320E835E240E050E06CEE2D
:1001300072E087ED91E00E94D60387ED91E00E9486
:10014000C00361E171E080910802909109020E9470
:1001500010096AE070E080E090E00E94C00541E094
:1001600060E087ED91E00E94410426E040E855E21E
:1001700060E070E08CEE92E00E94BB0724E13AE080
:1001800045E352E069E070E08EEA91E00E94E70208
:1001900024E13AE045E352E06AE070E08BEA91E066
:1001A0000E94E70224E13AE045E352E06BE070E0B0
:1001B00088EA91E00E94E70263E271E08CEE92E04F
:1001C0000C941D098F929F92AF92BF92CF92DF92B3
:1001D000EF92FF920F931F93CF93DF93CDB7DEB7CC
:1001E0006E970FB6F894DEBF0FBECDBFC12CD12CD9
:1001F00080E4E82EFE2C00E010E020E030E440E057
:1002000050E060E87FE3CE010D960E945C04C12CB3
:10021000D12C90ECE92E90E4F92E00E010E020EAD9
:1002200030E440E050E060E870E4CE0101960E94C6
:100230005C04C980DA80EB80FC800D811E812F81F7
:10024000388549855A856B857C85CE010D960E943F
:1002500076040E94910580910E010E9423069093DE
:10026000A7018093A601BC01882777FD8095982F70
:100270001F921F922AE0822E8F923CE8932E9F922B
:1002800044EFA42EBB24B394C12CD12CEE24EA94C9
:1002900013E0F12E00E010E020E030E0A9010E9420
:1002A000EE097093A7016093A6018EEA91E00E9487
:1002B000650380910C010E9423069093A501809311
:1002C000A401BC01882777FD8095982F1F921F926B
:1002D0008F929F9220E030E0A9010E94EE09709376
:1002E000A5016093A4018BEA91E00E9465038091CF
:1002F0000A010E9423069093A3018093A201BC01EE
:10030000882777FD8095982F1F921F928F929F923A
:1003100020E030E0A9010E94EE097093A3016093F0
:10032000A20188EA91E00E94650363E070E080E04A
:1003300090E00E94C0056091A6017091A701675DE1
:100340007E4FCE0149960E94A30A6091A40170914C
:10035000A501675D7E4FCE0149960E94E50A609136
:10036000A2017091A301CE0149960E94F50A609105
:10037000A6017091A7014AE050E08CEE92E00E9445
:10038000D20969E271E08CEE92E00E94100960915E
:10039000A4017091A5014AE050E08CEE92E00E9429
:1003A000D20969E271E08CEE92E00E94100960913E
:1003B000A2017091A3014AE050E08CEE92E00E940D
:1003C000D2096AE371E08CEE92E00E941009CE013E
:1003D00049960E94350A0FB6F894DEBF0FBECDBF16
:1003E0006E960FB6F894DEBF0FBECDBFDF91CF91F2
:1003F0001F910F91FF90EF90DF90CF90BF90AF9043
:100400009F908F9008958EEA91E00E94CB028BEA34
:1004100091E00E94CB0288EA91E00C94CB021F92FB
:100420000F920FB60F9211242F933F934F935F9328
:100430006F937F938F939F93AF93BF93EF93FF93AC
:100440008091B20187FF05C0109285001092840050
:100450001AC02091B201332727FD30958091B10158
:1004600090E0281739077CF48091B201992787FD25
:100470009095FC01EE0FFF1FE80FF91FED54FE4FA2
:10048000808186FD15C08091B2018F5F8093B2019B
:100490002091B201332727FD30958091B10190E082
:1004A00028173907BCF48091B2018C305CF112C07E
:1004B0008091B201992787FD9095FC01EE0FFF1FF7
:1004C000E80FF91FED54FE4F808160E08F730E94AA
:1004D000A206D9CF80918400909185000496803443
:1004E0009C4918F480E49CE905C0809184009091B7
:1004F0008500049690938900809388008FEF809305
:10050000B20138C020918400309185008091B20101
:10051000992787FD9095FC01EE0FFF1FE80FF91F4B
:10052000ED54FE4F81819281820F931F9093890039
:10053000809388008091B201992787FD9095FC01F6
:10054000EE0FFF1FE80FF91FED54FE4F808186FF6D
:1005500011C08091B201992787FD9095FC01EE0FA3
:10056000FF1FE80FF91FED54FE4F808161E08F738C
:100570000E94A206FF91EF91BF91AF919F918F9141
:100580007F916F915F914F913F912F910F900FBE8F
:100590000F901F9018952091B1012C30A0F431E0FC
:1005A000320F3093B101FC012083822F90E0FC01D7
:1005B000EE0FFF1FE80FF91FED54FE4F88EB9BE095
:1005C0009283818308952FEFFC0120830895DF92A9
:1005D000EF92FF920F931F93CF93DF93EC01D62EF0
:1005E0007A01890188818C3008F066C061E08D2D28
:1005F0000E9469068881A82FB0E0FD01EE0FFF1F61
:10060000EA0FFB1FED54FE4F2D2D2F739081907C30
:10061000922B908360E272E06E197F0977FF02C02F
:100620006D5F7F4F7595679575956795698340E612
:1006300059E0401B510B57FF02C04D5F5F4F55956E
:100640004795559547954A836CE00E94A70C9CE01E
:10065000899FB001112420E030E0A901460F571F07
:10066000FA01EE0FFF1FE40FF51FED54FE4F9081CE
:1006700096FD16C02F5F3F4F2C30310571F7811169
:100680000FC01092800082E080938100109285005C
:1006900010928400B19A80916F00826080936F0005
:1006A000888190E0FC01EE0FFF1FE80FF91FED5469
:1006B000FE4F8081806480838881DF91CF911F917C
:1006C0000F91FF90EF90DF900895FC0180818C30B6
:1006D00070F5918128E830E0291B310997FD3395A9
:1006E000220F331F220F331F621773077CF0928192
:1006F00028E532E0291B310997FD3395220F331F7E
:10070000220F331F621773070CF49B01225031092B
:10071000220F331F4FB7F89490E0FC01EE0FFF1F3C
:10072000E80FF91FED54FE4F328321834FBF089528
:100730000F931F93CF93DF93EC01662359F00E9430
:10074000910569837A838B839C83DF91CF911F917D
:100750000F9108950E94910509811A812B813C8196
:10076000601B710B820B930B613271058105910542
:1007700030F763E070E080E090E00E94C005EACFCF
:1007800060E00C949803FC0113AA14AA15AA16AAF7
:10079000118212821382148241155105610571057F
:1007A00021F0CB01BA010C94C0050895FB01BA01F8
:1007B000A901DC01D296FC93EE93D19726E0CF01FC
:1007C0000C94BB071F93CF93DF93EC01162F6CE2C1
:1007D00071E089A99AA90E9410094AE050E0612FAE
:1007E00089A99AA90E94E70963E371E089A99AA9F6
:1007F0000E94100962E370E080E090E0DF91CF9109
:100800001F910C94C0051F93CF93DF93EC01162F1B
:100810008D81882389F189A99AA9DC01ED91FC9148
:100820000480F581E02D0995892BA9F307C02637AF
:10083000310519F12835310509F41D8289A99AA9D4
:10084000DC01ED91FC910480F581E02D09951816ED
:10085000190694F489A99AA9DC01ED91FC9106800E
:10086000F781E02D09959C01332723363105F9F6F0
:10087000612FCE010E94E20383E6DF91CF911F91A9
:1008800008950F931F93CF93DF931F92CDB7DEB7D9
:100890008C01662349F081E0F801858360E0C8019E
:1008A00049830E9403044981F80145830F90DF9139
:1008B000CF911F910F910895CF92DF92EF92FF9207
:1008C0000F931F93FC0140835183628373830483DE
:1008D000158326833783C086D186E286F3861F91EF
:1008E0000F91FF90EF90DF90CF9008952F923F925D
:1008F0004F925F926F927F928F929F92AF92BF9230
:10090000CF92DF92EF92FF920F931F93CF93DF93DB
:10091000CDB7DEB72C970FB6F894DEBF0FBECDBFB4
:100920003C01C982DA82EB82FC820D831E832F8315
:10093000388749875A876B877C87FC012081318102
:100940004281538169817A818B819C810E94270B2E
:100950001B012C01F30124813581468157816D8172
:100960007E818F8198850E94270B4B015C01F301EA
:10097000208531854285538569857A858B859C855F
:100980000E94270B6B017C01A2019101C201B10100
:100990000E94DD0B2B013C01A5019401C501B401AE
:1009A0000E94DD0B9B01AC01C301B2010E94280B28
:1009B0004B015C01A7019601C701B6010E94DD0B46
:1009C0009B01AC01C501B4010E94280B2C960FB607
:1009D000F894DEBF0FBECDBFDF91CF911F910F9175
:1009E000FF90EF90DF90CF90BF90AF909F908F904F
:1009F0007F906F905F904F903F902F900C94440C9D
:100A000010920E0210920F02109210021092110218
:100A100010921202109213021092140210921502F8
:100A200010921602109217021092180210921902D8
:100A30000895CF93DF93EC0140960E943305CE01D9
:100A4000C5960E943305CE01865A9F4F0E943305FA
:100A5000CE0181589F4FDF91CF910C9433058AE1ED
:100A600092E00C941905CF93DF93EC010C960E9451
:100A7000CB02CE010F960E94CB02CE014296DF91AF
:100A8000CF910C94CB028EEB92E00C9433051F9225
:100A90000F920FB60F9211242F933F938F939F9332
:100AA000AF93BF938091E4029091E502A091E6029A
:100AB000B091E7023091E30223E0230F2D3720F4B9
:100AC0000196A11DB11D05C026E8230F0296A11DA8
:100AD000B11D2093E3028093E4029093E502A0937A
:100AE000E602B093E7028091E8029091E902A091BA
:100AF000EA02B091EB020196A11DB11D8093E802BC
:100B00009093E902A093EA02B093EB02BF91AF91F8
:100B10009F918F913F912F910F900FBE0F901F903B
:100B200018952FB7F8946091E4027091E5028091D6
:100B3000E6029091E7022FBF08953FB7F8948091A5
:100B4000E8029091E902A091EA02B091EB0226B589
:100B5000A89B05C02F3F19F00196A11DB11D3FBFF5
:100B60006627782F892F9A2F620F711D811D911D85
:100B700042E0660F771F881F991F4A95D1F70895A5
:100B8000CF92DF92EF92FF92CF93DF936B017C01C4
:100B90000E949D05EB01C114D104E104F10489F028
:100BA0000E94260B0E949D056C1B7D0B683E7340C6
:100BB00090F381E0C81AD108E108F108C851DC4F70
:100BC000EACFDF91CF91FF90EF90DF90CF90089523
:100BD000789484B5826084BD84B5816084BD85B518
:100BE000826085BD85B5816085BDEEE6F0E08081DF
:100BF00081608083E1E8F0E0108280818260808300
:100C0000808181608083E0E8F0E080818160808382
:100C1000E1EBF0E0808184608083E0EBF0E08081B4
:100C200081608083EAE7F0E0808184608083808156
:100C300082608083808181608083808180688083FE
:100C40001092C10008958E3008F08E508770209168
:100C5000100190E4299F90011124822B80937C0045
:100C600080917A00806480937A0080917A0086FD7A
:100C7000FCCF809178002091790090E0922B08952C
:100C8000833081F028F4813099F08230A1F008950A
:100C90008730A9F08830B9F08430D1F48091800099
:100CA0008F7D03C0809180008F77809380000895AE
:100CB00084B58F7702C084B58F7D84BD08958091FF
:100CC000B0008F7703C08091B0008F7D8093B0001B
:100CD0000895CF93DF9390E0FC01E458FF4F2491F7
:100CE000FC01E057FF4F8491882349F190E0880F81
:100CF000991FFC01E255FF4FA591B4918C559F4F70
:100D0000FC01C591D4919FB7611108C0F8948C91F2
:100D1000209582238C93888182230AC0623051F40B
:100D2000F8948C91322F309583238C938881822B79
:100D3000888304C0F8948C91822B8C939FBFDF91A1
:100D4000CF9108950F931F93CF93DF931F92CDB749
:100D5000DEB7282F30E0F901E859FF4F8491F901FF
:100D6000E458FF4F1491F901E057FF4F049100231D
:100D7000C9F0882321F069830E9440066981E02F31
:100D8000F0E0EE0FFF1FEC55FF4FA591B4919FB718
:100D9000F8948C91611103C01095812301C0812BBF
:100DA0008C939FBF0F90DF91CF911F910F9108956A
:100DB000FC01818D228D90E0805C9F4F821B910908
:100DC0008F7399270895FC01918D828D981731F0CA
:100DD000828DE80FF11D858D90E008958FEF9FEFD4
:100DE0000895FC01918D828D981761F0828DDF014D
:100DF000A80FB11D5D968C91928D9F5F9F73928F0E
:100E000090E008958FEF9FEF089585E798E0892B94
:100E100049F080E090E0892B29F00E94750881114B
:100E20000C9400000895FC01848DDF01A80FB11D12
:100E3000A35ABF4F2C91848D90E001968F73992710
:100E4000848FA689B7892C93A089B1898C918064FD
:100E50008C93938D848D981306C00288F389E02DBE
:100E600080818F7D80830895CF93DF93EC01888DFF
:100E70008823C9F0EA89FB89808185FD05C0A8899E
:100E8000B9898C9186FD0FC00FB607FCF5CF808124
:100E900085FFF2CFA889B9898C9185FFEDCFCE016E
:100EA0000E941307E7CFDF91CF910895CF92DF9291
:100EB000FF920F931F93CF93DF931F92CDB7DEB7AF
:100EC0006C0181E0D60158968C9358975B969C9163
:100ED0005B975C968C915C97981307C05096ED9148
:100EE000FC915197808185FD2EC0F601038D10E0A5
:100EF0000F5F1F4F0F731127F02EF601848DF8122C
:100F000011C00FB607FCF9CFD6015096ED91FC91B8
:100F10005197808185FFF1CFC60169830E94130735
:100F20006981EBCF838DE80FF11DE35AFF4F60839A
:100F3000D6015B960C935B975296ED91FC9153977B
:100F4000808180620CC0D6015696ED91FC91579736
:100F500060835096ED91FC915197808180648083ED
:100F600081E090E00F90DF91CF911F910F91FF9062
:100F7000DF90CF900895BF92CF92DF92EF92FF92D1
:100F8000CF93DF93EC016A017B01B22EE889F989E6
:100F900082E08083411581EE580761057105A1F05B
:100FA00060E079E08DE390E0A70196010E94B30C28
:100FB0002150310941095109569547953795279593
:100FC000211580E1380798F0E889F989108260E8F6
:100FD00074E88EE190E0A70196010E94B30C2150C5
:100FE0003109410951095695479537952795EC8563
:100FF000FD853083EE85FF852083188EEC89FD8981
:10100000B082EA89FB89808180618083EA89FB89DB
:10101000808188608083EA89FB8980818068808301
:10102000EA89FB8980818F7D8083DF91CF91FF905A
:10103000EF90DF90CF90BF9008951F920F920FB660
:101040000F9211242F938F939F93EF93FF93E0912F
:10105000FC02F091FD028081E0910203F091030314
:1010600082FD12C09081809105038F5F8F73209164
:101070000603821751F0E0910503F0E0E451FD4FC3
:10108000958F8093050301C08081FF91EF919F911F
:101090008F912F910F900FBE0F901F9018951F9258
:1010A0000F920FB60F9211242F933F934F935F939C
:1010B0006F937F938F939F93AF93BF93EF93FF9320
:1010C0008CEE92E00E941307FF91EF91BF91AF91D8
:1010D0009F918F917F916F915F914F913F912F9150
:1010E0000F900FBE0F901F9018958CEE92E00E940B
:1010F000D80621E0892B09F420E0822F0895109270
:10110000EF021092EE0288EE93E0A0E0B0E0809350
:10111000F0029093F102A093F202B093F30288E8F8
:1011200091E09093ED028093EC0285EC90E0909337
:10113000F9028093F80284EC90E09093FB02809394
:10114000FA0280EC90E09093FD028093FC0281EC27
:1011500090E09093FF028093FE0282EC90E09093E7
:1011600001038093000386EC90E090930303809347
:1011700002031092050310920603109207031092C7
:101180000803089508950E94E8050E94C2080E947D
:101190008B00C5E0D7E00E94E2002097E1F30E94B7
:1011A0000507F9CFCF92DF92EF92FF920F931F9333
:1011B000CF93DF937C016A01EB0100E010E00C1596
:1011C0001D0571F06991D701ED91FC910190F081BD
:1011D000E02DC7010995892B19F00F5F1F4FEFCF45
:1011E000C801DF91CF911F910F91FF90EF90DF9099
:1011F000CF9008956115710581F0DB010D900020FD
:10120000E9F7AD0141505109461B570BDC01ED9147
:10121000FC910280F381E02D099480E090E0089534
:101220000C94FA08DC01ED91FC910190F081E02D25
:10123000099469E371E00C94FA080F931F93CF931C
:10124000DF93EC010E94FA088C01CE010E9419097B
:10125000800F911FDF91CF911F910F9108958F9271
:101260009F92AF92BF92CF92DF92EF92FF920F9335
:101270001F93CF93DF93CDB7DEB7A1970FB6F89446
:10128000DEBF0FBECDBF7C01C42EE52FCB01D22E19
:1012900019A221E02D1510F02AE0D22E8E010F5D4B
:1012A0001F4F8D2C912CA12CB12C6C2D7E2FA501C4
:1012B00094010E94B30C8C2DD29E801911240150F0
:1012C00011098A3014F4805D01C0895CF8018083C3
:1012D000211531054105510521F0C22EE32FCA0128
:1012E000E4CFB801C7010E94FA08A1960FB6F8949E
:1012F000DEBF0FBECDBFDF91CF911F910F91FF9049
:10130000EF90DF90CF90BF90AF909F908F90089517
:10131000CF92DF92EF92FF920F931F93CF93DF93C1
:10132000EC016A017B012115310579F4E881F9812D
:101330000190F081E02D642FDF91CF911F910F91EB
:10134000FF90EF90DF90CF9009942A303105E9F4B7
:1013500077FF1AC06DE20E9412098C0144275527BD
:10136000BA014C195D096E097F092AE0CE010E947D
:101370002F09800F911FDF91CF911F910F91FF9047
:10138000EF90DF90CF9008952AE0B701A601CE013B
:10139000DF91CF911F910F91FF90EF90DF90CF9051
:1013A0000C942F099A01AB01662757FD6095762FA3
:1013B0000C9488092115310541F4DC01ED91FC9173
:1013C0000190F081E02D642F09940C942F099A016B
:1013D000462F50E060E070E00C94DA094F925F9283
:1013E0006F927F92AF92BF92CF92DF92EF92FF9275
:1013F0000F931F93CF93DF93CDB7DEB729013A0147
:10140000621B730B840B950B29893A894B895C8984
:101410002A193B094C095D09298B3A8B4B8B5C8B54
:101420009B01AC0169897A898B899C890E94970C00
:10143000E418F50806091709A80197010E94D50CC0
:101440002A0D3B1D4C1D5D1DCA01B901DF91CF91D5
:101450001F910F91FF90EF90DF90CF90BF90AF90D2
:101460007F906F905F904F900895FC0180819181F3
:101470000C94AC0DCF93DF93EC0188819981009798
:1014800011F00E94AC0D198218821D821C821B82F1
:101490001A82DF91CF9108950F931F93CF93DF931B
:1014A000EC018B016F5F7F4F888199810E943B0E19
:1014B000009731F0998388831B830A8381E001C000
:1014C00080E0DF91CF911F910F910895CF93DF932B
:1014D000EC0188819981892B29F08A819B8186176B
:1014E000970760F4CE010E944C0A882341F08C815A
:1014F0009D81892B19F4E881F981108281E0DF91C7
:10150000CF910895EF92FF920F931F93CF93DF93A4
:10151000EC017B018A01BA010E94660A811104C0B4
:10152000CE010E943A0A07C01D830C83B70188814F
:1015300099810E940E0FCE01DF91CF911F910F91E3
:10154000FF90EF900895FC011182108213821282A5
:10155000158214826115710559F0FB01019000207C
:10156000E9F7AF0141505109461B570B0C94820A11
:101570000895EF92FF920F931F93CF93DF93EC01A7
:101580007B010C811D816115710511F480E016C08D
:101590004115510591F0040F151FB8010E94660A0C
:1015A0008823A1F3288139818C819D81B701820F25
:1015B000931F0E940E0F1D830C8381E0DF91CF915A
:1015C0001F910F91FF90EF9008956115710559F0EB
:1015D000FB0101900020E9F7AF0141505109461B82
:1015E000570B0C94B90A80E00895EF92FF920F9385
:1015F0001F93CF93DF93CDB7DEB728970FB6F8943C
:10160000DEBF0FBECDBF7C01CB014AE08E010F5F74
:101610001F4FB8010E94150FF80101900020E9F753
:10162000AF0141505109401B510BB801C7010E9445
:10163000B90A28960FB6F894DEBF0FBECDBFDF9172
:10164000CF911F910F91FF90EF90089508955058FA
:10165000BB27AA270ED077C068D030F06DD020F01D
:1016600031F49F3F11F41EF45DC00EF4E095E7FBEA
:1016700053C0E92F79D080F3BA1762077307840744
:10168000950718F071F49EF591C00EF4E0950B2EBD
:10169000BA2FA02D0B01B90190010C01CA01A001C4
:1016A0001124FF27591B99F0593F50F4503E68F11F
:1016B0001A16F040A22F232F342F4427585FF3CF60
:1016C000469537952795A795F0405395C9F77EF431
:1016D0001F16BA0B620B730B840BBAF09150A1F07A
:1016E000FF0FBB1F661F771F881FC2F70EC0BA0F00
:1016F000621F731F841F48F4879577956795B79588
:10170000F7959E3F08F0B3CF9395880F08F099277F
:10171000EE0F97958795089597F99F6780E870E099
:1017200060E008959FEF80EC089500240A94161657
:10173000170618060906089500240A9412161306BF
:10174000140605060895092E0394000C11F488234D
:1017500052F0BB0F40F4BF2B11F460FF04C06F5F69
:101760007F4F8F4F9F4F089557FD9058440F551F3F
:1017700059F05F3F71F04795880F97FB991F61F013
:101780009F3F79F087950895121613061406551F8A
:10179000F2CF4695F1DF08C0161617061806991FF6
:1017A000F1CF86957105610508940895E894BB27EB
:1017B00066277727CB0197F908950BD0C4CFB5DF03
:1017C00028F0BADF18F0952309F0A6CFABCF11248B
:1017D000EECFCADFA0F3959FD1F3950F50E0551FD0
:1017E000629FF001729FBB27F00DB11D639FAA2776
:1017F000F00DB11DAA1F649F6627B00DA11D661FC5
:10180000829F2227B00DA11D621F739FB00DA11DE5
:10181000621F839FA00D611D221F749F3327A00D9F
:10182000611D231F849F600D211D822F762F6A2F3B
:1018300011249F5750408AF0E1F088234AF0EE0FC0
:10184000FF1FBB1F661F771F881F91505040A9F7CD
:101850009E3F510570F060CFAACF5F3FECF3983EFA
:10186000DCF3869577956795B795F795E7959F5F34
:10187000C1F7FE2B880F911D9695879597F90895CE
:1018800011F40EF44FCF3EC077DFD0F39923D9F394
:10189000CEF39F57550B87FF43D00024A0E640EAC4
:1018A000900180585695979528F4805C660F771FB5
:1018B000881F20F026173707480730F4621B730B88
:1018C000840B202931294A2BA695179407942025AB
:1018D00031254A2758F7660F771F881F20F02617F3
:1018E0003707480730F4620B730B840B200D311D52
:1018F000411DA09581F7B901842F9158880F9695C5
:10190000879508959F3F31F0915020F48795779502
:101910006795B795880F911D9695879597F90895C6
:1019200091505040660F771F881FD2F70895DB0152
:101930008F939F930E94F40CBF91AF91A29F800D53
:10194000911DA39F900DB29F900D11240895991B96
:1019500079E004C0991F961708F0961B881F7A95A6
:10196000C9F780950895A1E21A2EAA1BBB1BFD01A1
:101970000DC0AA1FBB1FEE1FFF1FA217B307E4076E
:10198000F50720F0A21BB30BE40BF50B661F771FC6
:10199000881F991F1A9469F76095709580959095A6
:1019A0009B01AC01BD01CF010895052E97FB1EF4EC
:1019B00000940E94EC0C57FD07D00E94B30C07FC6A
:1019C00003D04EF40C94EC0C509540953095219535
:1019D0003F4F4F4F5F4F089590958095709561955B
:1019E0007F4F8F4F9F4F08950E94050DA59F900D2B
:1019F000B49F900DA49F800D911D11240895EE0FAA
:101A0000FF1F0590F491E02D0994A29FB001B39FB0
:101A1000C001A39F700D811D1124911DB29F700DF7
:101A2000811D1124911D0895CF93DF93823091057C
:101A300010F482E090E0E0918B03F0918C0320E0C1
:101A400030E0A0E0B0E0309739F140815181481793
:101A50005907B8F04817590771F48281938110979C
:101A600029F013969C938E9312972CC090938C031D
:101A700080938B0327C02115310531F0421753079E
:101A800018F0A901DB0101C0EF019A01BD01DF01DE
:101A90000280F381E02DD7CF21153105F9F0281B05
:101AA000390B2430310580F48A819B8161157105E1
:101AB00021F0FB019383828304C090938C03809375
:101AC0008B03FE01329644C0FE01E20FF31F8193A7
:101AD000919322503109398328833AC02091890398
:101AE00030918A03232B41F42091020130910301AC
:101AF00030938A03209389032091000130910101E2
:101B00002115310541F42DB73EB7409104015091A4
:101B10000501241B350BE0918903F0918A03E2173C
:101B2000F307A0F42E1B3F0B2817390778F0AC0100
:101B30004E5F5F4F2417350748F04E0F5F1F5093DD
:101B40008A03409389038193919302C0E0E0F0E01F
:101B5000CF01DF91CF910895CF93DF93009709F4E0
:101B600087C0FC01329713821282C0918B03D091FF
:101B70008C03209781F420813181280F391F8091B7
:101B8000890390918A038217930779F5F0938A036A
:101B9000E09389036DC0DE0120E030E0AE17BF079F
:101BA00050F412964D915C9113979D01411551058A
:101BB00009F1DA01F3CFB383A28340815181840F0D
:101BC000951F8A179B0771F48D919C911197840F33
:101BD000951F02969183808312968D919C91139705
:101BE000938382832115310529F4F0938C03E093CC
:101BF0008B033EC0D9011396FC93EE9312974D913F
:101C00005D91A40FB51FEA17FB0779F480819181DC
:101C1000840F951F0296D90111969C938E93828111
:101C2000938113969C938E931297E0E0F0E08A8163
:101C30009B81009719F0FE01EC01F9CFCE010296CD
:101C400028813981820F931F2091890330918A0363
:101C50002817390769F4309729F410928C031092F1
:101C60008B0302C013821282D0938A03C09389032C
:101C7000DF91CF910895A0E0B0E0E1E4FEE00C94A4
:101C80004E0FEC01CB01209719F40E94140DB8C03F
:101C9000FE01E60FF71F9E0122503109E217F307FC
:101CA00008F4ACC0D9010D911C91119706171707C4
:101CB000B8F00530110508F49FC0A801445051093F
:101CC0004617570708F498C002501109061B170B56
:101CD000019311936D937C93CF010E94AC0D8CC046
:101CE0005B01A01AB10A4E01800E911EA0918B03D8
:101CF000B0918C03612C712C60E070E0109709F4B6
:101D000049C0A815B905C9F5ED90FC901197670178
:101D100042E0C40ED11CCA14DB0478F147018A18D2
:101D20009B08640142E0C40ED11C1296BC9012972D
:101D30001396AC91B5E0CB16D10440F0B282A383E8
:101D400091828082D9018D939C9309C00E5F1F4FB1
:101D50000E0D1F1DF90111830083EB2DFA2F611564
:101D6000710531F0DB011396FC93EE93129744C09A
:101D7000F0938C03E0938B033FC06D917C9111979E
:101D80006616770608F43B01BD0112960D90BC91D2
:101D9000A02DB4CF6091890370918A0368157905ED
:101DA000E9F468167906D0F44091000150910101E0
:101DB0004115510541F44DB75EB760910401709132
:101DC0000501461B570BE417F507C0F4F0938A038F
:101DD000E0938903F901918380830EC00E94140D62
:101DE0007C01009759F0A801BE010E94050FCE01A9
:101DF0000E94AC0DC70104C0CE0102C080E090E09B
:101E0000CDB7DEB7EEE00C946A0FFB01DC0102C037
:101E100001900D9241505040D8F70895FB01DC012C
:101E200001900D920020E1F70895BB274A3031F46C
:101E3000992322F4BDE2909581959F4F0C94210F38
:101E4000BB27FB015527AA27880F991FAA1FA41794
:101E500010F0A41B83955051B9F7A05DAA3308F088
:101E6000A95DA193009779F7B111B1931192CB01BC
:101E70000C943A0FDC01FC01672F71917723E1F795
:101E8000329704C07C916D9370836291AE17BF0747
:101E9000C8F308952F923F924F925F926F927F9274
:101EA0008F929F92AF92BF92CF92DF92EF92FF926A
:101EB0000F931F93CF93DF93CDB7DEB7CA1BDB0B16
:101EC0000FB6F894DEBF0FBECDBF09942A883988BB
:101ED00048885F846E847D848C849B84AA84B984C2
:101EE000C884DF80EE80FD800C811B81AA81B981CE
:101EF000CE0FD11D0FB6F894DEBF0FBECDBFED01E2
:061F00000895F894FFCFE4
:101F060000008D0380000100000010000F000E008D
:101F160001564D4450565F317C315F564D44505604
:101F26000D0A0068656C6C6F002C2000564D4450FD
:101F3600435F005F564D4450430D0A004572726F71
:101F4600723A20417474656D707420746F207365E5
:101F560074206120726561642D6F6E6C79207661E4
:101F6600726961626C65206F7220646174612074AD
:101F7600797065206E6F7420737570706F727465FA
:101F8600640D0A00000000005607D208D806F106C4
:101F9600E30634076E616E00696E66006F76660052
:021FA6002E000B
:00000001FF
