:100000000C9462000C948A000C948A000C948A0070
:100010000C948A000C948A000C948A000C948A0038
:100020000C948A000C948A000C948A000C9494021C
:100030000C948A000C948A000C948A000C948A0018
:100040000C94EA050C948A000C94D2080C940409D0
:100050000C948A000C948A000C948A000C948A00F8
:100060000C948A000C948A00000000080002010031
:100070000003040700000000000000000102040863
:100080001020408001020408102001020408102002
:10009000040404040404040402020202020203032E
:1000A0000303030300000000250028002B000000CC
:1000B0000000240027002A0088028505B505E20516
:1000C000E605340911241FBECFEFD8E0DEBFCDBF57
:1000D00011E0A0E0B1E0ECE5F0E202C005900D9285
:1000E000A63BB107D9F724E0A6EBB1E001C01D9211
:1000F000AE32B207E1F710E0C4ECD0E004C02297C2
:10010000FE010E94AC0DC83BD107C9F70E947809D7
:100110000C942C100C94000040ED57E060E070E06F
:1001200083EF91E00E94480420E835E240E050E08F
:100130006DE873E083EF91E00E945B0483EF91E050
:100140000E94450461E171E08091240290912502B2
:100150000E94C5096AE070E080E090E00E946306BA
:1001600041E060E083EF91E00E94C60426E040E8B1
:1001700055E260E070E08DE893E00E94700824E1B1
:100180003AE045E352E069E070E082EC91E00E94E1
:100190006C0324E13AE045E352E06AE070E08FEB63
:1001A00091E00E946C0324E13AE045E352E06BE009
:1001B00070E08CEB91E00E946C0363E271E08DE8EB
:1001C00093E00C94D2098F929F92AF92BF92CF92FC
:1001D000DF92EF92FF920F931F93CF93DF93CDB7F0
:1001E000DEB76E970FB6F894DEBF0FBECDBF0E948C
:1001F0003406672B682B692B41F40E943406623069
:1002000071058105910508F476C00E94340660935B
:10021000C5017093C6018093C7019093C8010091F6
:10022000C9011091CA012091CB013091CC01601716
:1002300071078207930740F46093C9017093CA0164
:100240008093CB019093CC010091C9011091CA0118
:100250002091CB013091CC016B017C01C01AD10AF5
:10026000E20AF30A970186010A3F110521053105CB
:1002700008F441C06093C9017093CA018093CB0117
:100280009093CC0183EF91E00E94450469E271E014
:1002900080912402909125020E94C50961E371E0DA
:1002A00080912402909125020E94C5090E94340683
:1002B000AB01BC012AE030E080912402909125023C
:1002C0000E94850A63E371E08091240290912502E7
:1002D0000E94C50965E070E080E090E00E9463063E
:1002E0006AE070E080E090E00E94630661E083EFE6
:1002F00091E00E948804C12CD12C80E4E82EFE2CD1
:1003000000E010E020E030E440E050E060E87FE30F
:10031000CE010D960E94E104C12CD12C90ECE92E67
:1003200090E4F92E00E010E020EA30E440E050E0F4
:1003300060E870E4CE0101960E94E104C980DA8091
:10034000EB80FC800D811E812F81388549855A857F
:100350006B857C85CE010D960E94FB040E943406BD
:1003600080910E010E94D8069093BB018093BA0140
:10037000BC01882777FD8095982F1F921F922AE055
:10038000822E8F923CE8932E9F9244EFA42EBB24A2
:10039000B394C12CD12CEE24EA9413E0F12E00E0AA
:1003A00010E020E030E0A9010E94990A7093BB019F
:1003B0006093BA0182EC91E00E94EA0380910C0103
:1003C0000E94D8069093B9018093B801BC01882798
:1003D00077FD8095982F1F921F928F929F9220E019
:1003E00030E0A9010E94990A7093B9016093B801A5
:1003F0008FEB91E00E94EA0380910A010E94D806E7
:100400009093B7018093B601BC01882777FD809552
:10041000982F1F921F928F929F9220E030E0A901A7
:100420000E94990A7093B7016093B6018CEB91E03A
:100430000E94EA0363E070E080E090E00E946306BF
:100440006091BA017091BB01645C7E4FCE01499608
:100450000E944E0B6091B8017091B901645C7E4FAF
:10046000CE0149960E94900B6091B6017091B70140
:10047000CE0149960E94A00B6091BA017091BB0118
:100480004AE050E08DE893E00E947D0A6CE371E061
:100490008DE893E00E94C5096091B8017091B9019F
:1004A0004AE050E08DE893E00E947D0A6CE371E041
:1004B0008DE893E00E94C5096091B6017091B70183
:1004C0004AE050E08DE893E00E947D0A6DE471E01F
:1004D0008DE893E00E94C509CE0149960E94E00A8A
:1004E0000FB6F894DEBF0FBECDBF6E960FB6F89470
:1004F000DEBF0FBECDBFDF91CF911F910F91FF9057
:10050000EF90DF90CF90BF90AF909F908F90089525
:1005100082EC91E00E9450038FEB91E00E94500327
:100520008CEB91E00C9450031F920F920FB60F9238
:1005300011242F933F934F935F936F937F938F93E8
:100540009F93AF93BF93EF93FF938091CE0187FF6B
:1005500005C010928500109284001AC02091CE012F
:10056000332727FD30958091CD0190E0281739077A
:100570007CF48091CE01992787FD9095FC01EE0FC8
:10058000FF1FE80FF91FE153FE4F808186FD15C064
:100590008091CE018F5F8093CE012091CE013327D1
:1005A00027FD30958091CD0190E028173907BCF4E4
:1005B0008091CE018C305CF112C08091CE019927E0
:1005C00087FD9095FC01EE0FFF1FE80FF91FE15327
:1005D000FE4F808160E08F730E945707D9CF8091D2
:1005E000840090918500049680349C4918F480E43E
:1005F0009CE905C0809184009091850004969093B9
:100600008900809388008FEF8093CE0138C02091BD
:100610008400309185008091CE01992787FD9095C7
:10062000FC01EE0FFF1FE80FF91FE153FE4F818120
:100630009281820F931F909389008093880080910C
:10064000CE01992787FD9095FC01EE0FFF1FE80F63
:10065000F91FE153FE4F808186FF11C08091CE01CA
:10066000992787FD9095FC01EE0FFF1FE80FF91FFA
:10067000E153FE4F808161E08F730E945707FF9125
:10068000EF91BF91AF919F918F917F916F915F910A
:100690004F913F912F910F900FBE0F901F90189583
:1006A0002091CD012C30A0F431E0320F3093CD01F8
:1006B000FC012083822F90E0FC01EE0FFF1FE80F6A
:1006C000F91FE153FE4F88EB9BE0928381830895ED
:1006D0002FEFFC0120830895DF92EF92FF920F939A
:1006E0001F93CF93DF93EC01D62E7A018901888185
:1006F0008C3008F066C061E08D2D0E941E07888155
:10070000A82FB0E0FD01EE0FFF1FEA0FFB1FE15322
:10071000FE4F2D2D2F739081907C922B908360E261
:1007200072E06E197F0977FF02C06D5F7F4F75958C
:10073000679575956795698340E659E0401B510BB5
:1007400057FF02C04D5F5F4F5595479555954795AB
:100750004A836CE00E94520D9CE0899FB0011124F5
:1007600020E030E0A901460F571FFA01EE0FFF1FEE
:10077000E40FF51FE153FE4F908196FD16C02F5FE9
:100780003F4F2C30310571F781110FC0109280005E
:1007900082E0809381001092850010928400B19ACB
:1007A00080916F00826080936F00888190E0FC01EF
:1007B000EE0FFF1FE80FF91FE153FE4F80818064A9
:1007C00080838881DF91CF911F910F91FF90EF90EF
:1007D000DF900895FC0180818C3070F5918128E8CC
:1007E00030E0291B310997FD3395220F331F220F6B
:1007F000331F621773077CF0928128E532E0291BD2
:10080000310997FD3395220F331F220F331F6217D3
:1008100073070CF49B0122503109220F331F4FB78D
:10082000F89490E0FC01EE0FFF1FE80FF91FE15371
:10083000FE4F328321834FBF08950F931F93CF93B1
:10084000DF93EC01662359F00E94340669837A83B2
:100850008B839C83DF91CF911F910F9108950E940C
:10086000340609811A812B813C81601B710B820B3C
:10087000930B623371058105910530F763E070E0F9
:1008800080E090E00E946306EACF60E00C941D04D3
:10089000FC0113AA14AA15AA16AA118212821382A5
:1008A0001482411551056105710521F0CB01BA0192
:1008B0000C9463060895FB01BA01A901DC01D296EC
:1008C000FC93EE93D19726E0CF010C9470081F9310
:1008D000CF93DF93EC01162F6FE371E089A99AA9FA
:1008E0000E94C5094AE050E0612F89A99AA90E9497
:1008F000920A66E471E089A99AA90E94C50962E397
:1009000070E080E090E0DF91CF911F910C9463063E
:100910001F93CF93DF93EC01162F8D81882389F1EC
:1009200089A99AA9DC01ED91FC910480F581E02D63
:100930000995892BA9F307C02637310519F1283508
:10094000310509F41D8289A99AA9DC01ED91FC9178
:100950000480F581E02D09951816190694F489A9EB
:100960009AA9DC01ED91FC910680F781E02D0995B3
:100970009C01332723363105F9F6612FCE010E9401
:10098000670483E6DF91CF911F9108950F931F9322
:10099000CF93DF931F92CDB7DEB78C01662349F06A
:1009A00081E0F801858360E0C80149830E948804E2
:1009B0004981F80145830F90DF91CF911F910F91ED
:1009C0000895CF92DF92EF92FF920F931F93FC0155
:1009D0004083518362837383048315832683378323
:1009E000C086D186E286F3861F910F91FF90EF902B
:1009F000DF90CF9008952F923F924F925F926F9227
:100A00007F928F929F92AF92BF92CF92DF92EF929E
:100A1000FF920F931F93CF93DF93CDB7DEB72C9741
:100A20000FB6F894DEBF0FBECDBF3C01C982DA829B
:100A3000EB82FC820D831E832F83388749875A8778
:100A40006B877C87FC0120813181428153816981E0
:100A50007A818B819C810E94D20B1B012C01F301B6
:100A600024813581468157816D817E818F81988572
:100A70000E94D20B4B015C01F30120853185428538
:100A8000538569857A858B859C850E94D20B6B0185
:100A90007C01A2019101C201B1010E94880C2B01CD
:100AA0003C01A5019401C501B4010E94880C9B0181
:100AB000AC01C301B2010E94D30B4B015C01A70141
:100AC0009601C701B6010E94880C9B01AC01C501CB
:100AD000B4010E94D30B2C960FB6F894DEBF0FBE64
:100AE000CDBFDF91CF911F910F91FF90EF90DF90DD
:100AF000CF90BF90AF909F908F907F906F905F90BE
:100B00004F903F902F900C94EF0C10922A0210926D
:100B10002B0210922C0210922D0210922E02109293
:100B20002F02109230021092310210923202109273
:100B3000330210923402109235020895CF93DF935E
:100B4000EC0140960E94B905CE01835B9F4F0E9445
:100B5000B905CE0186579F4F0E94B905CE01895332
:100B60009F4FDF91CF910C94B90586E392E00C94EE
:100B70009E05CF93DF93EC010C960E945003CE01AB
:100B80000F960E945003CE0142960E94500380E0CF
:100B900090E0A4E0B2E48DA79EA7AFA7B8AB80E039
:100BA00090E0A8ECB2E489AB9AABABABBCAB40E055
:100BB00050E063E173E44DAB5EAB6FAB78AFDF91B8
:100BC000CF9108958AE393E00C94B90587E793E009
:100BD0000C9450031F920F920FB60F9211242F9373
:100BE0003F938F939F93AF93BF9380918503909191
:100BF0008603A0918703B09188033091840323E09A
:100C0000230F2D3720F40196A11DB11D05C026E844
:100C1000230F0296A11DB11D2093840380938503A9
:100C200090938603A0938703B093880380918903F0
:100C300090918A03A0918B03B0918C030196A11D22
:100C4000B11D8093890390938A03A0938B03B09383
:100C50008C03BF91AF919F918F913F912F910F90F6
:100C60000FBE0F901F9018952FB7F89460918503D1
:100C70007091860380918703909188032FBF089518
:100C80003FB7F8948091890390918A03A0918B03D8
:100C9000B0918C0326B5A89B05C02F3F19F0019693
:100CA000A11DB11D3FBF6627782F892F9A2F620F94
:100CB000711D811D911D42E0660F771F881F991FCE
:100CC0004A95D1F708958F929F92AF92BF92CF929B
:100CD000DF92EF92FF926B017C010E9440064B0174
:100CE0005C01C114D104E104F104F1F00E94D10BC4
:100CF0000E944006681979098A099B09683E734079
:100D00008105910570F321E0C21AD108E108F108CC
:100D100088EE880E83E0981EA11CB11CC114D1047A
:100D2000E104F10429F7DDCFFF90EF90DF90CF9041
:100D3000BF90AF909F908F900895789484B5826013
:100D400084BD84B5816084BD85B5826085BD85B56F
:100D5000816085BDEEE6F0E0808181608083E1E81E
:100D6000F0E0108280818260808380818160808356
:100D7000E0E8F0E0808181608083E1EBF0E0808159
:100D800084608083E0EBF0E0808181608083EAE72B
:100D9000F0E08081846080838081826080838081B4
:100DA000816080838081806880831092C100089573
:100DB0008E3008F08E5087702091100190E4299FAA
:100DC00090011124822B80937C0080917A008064B2
:100DD00080937A0080917A0086FDFCCF8091780024
:100DE0002091790090E0922B0895833081F028F4CF
:100DF000813099F08230A1F008958730A9F08830D1
:100E0000B9F08430D1F4809180008F7D03C080914F
:100E100080008F7780938000089584B58F7702C01B
:100E200084B58F7D84BD08958091B0008F7703C015
:100E30008091B0008F7D8093B0000895CF93DF93B1
:100E400090E0FC01E458FF4F2491FC01E057FF4F74
:100E50008491882349F190E0880F991FFC01E255A5
:100E6000FF4FA591B4918C559F4FFC01C591D49132
:100E70009FB7611108C0F8948C91209582238C93C0
:100E8000888182230AC0623051F4F8948C91322F09
:100E9000309583238C938881822B888304C0F894B7
:100EA0008C91822B8C939FBFDF91CF9108950F93EC
:100EB0001F93CF93DF931F92CDB7DEB7282F30E07B
:100EC000F901E859FF4F8491F901E458FF4F14915B
:100ED000F901E057FF4F04910023C9F0882321F066
:100EE00069830E94F5066981E02FF0E0EE0FFF1F95
:100EF000EC55FF4FA591B4919FB7F8948C91611177
:100F000003C01095812301C0812B8C939FBF0F904C
:100F1000DF91CF911F910F910895FC01818D228D5A
:100F200090E0805C9F4F821B91098F7399270895F1
:100F3000FC01918D828D981731F0828DE80FF11DA3
:100F4000858D90E008958FEF9FEF0895FC01918DBE
:100F5000828D981761F0828DDF01A80FB11D5D961B
:100F60008C91928D9F5F9F73928F90E008958FEF89
:100F70009FEF08958AE299E0892B49F080E090E0A4
:100F8000892B29F00E942A0981110C9400000895F0
:100F9000FC01848DDF01A80FB11DA35ABF4F2C9116
:100FA000848D90E001968F739927848FA689B789E5
:100FB0002C93A089B1898C9180648C93938D848DBE
:100FC000981306C00288F389E02D80818F7D80838D
:100FD0000895CF93DF93EC01888D8823C9F0EA89C7
:100FE000FB89808185FD05C0A889B9898C9186FD22
:100FF0000FC00FB607FCF5CF808185FFF2CFA8891F
:10100000B9898C9185FFEDCFCE010E94C807E7CF4B
:10101000DF91CF910895CF92DF92FF920F931F93AC
:10102000CF93DF931F92CDB7DEB76C0181E0D6017D
:1010300058968C9358975B969C915B975C968C9195
:101040005C97981307C05096ED91FC915197808161
:1010500085FD2EC0F601038D10E00F5F1F4F0F734B
:101060001127F02EF601848DF81211C00FB607FC7F
:10107000F9CFD6015096ED91FC915197808185FF73
:10108000F1CFC60169830E94C8076981EBCF838DC8
:10109000E80FF11DE35AFF4F6083D6015B960C9376
:1010A0005B975296ED91FC915397808180620CC0C2
:1010B000D6015696ED91FC91579760835096ED912D
:1010C000FC91519780818064808381E090E00F9053
:1010D000DF91CF911F910F91FF90DF90CF900895F6
:1010E000BF92CF92DF92EF92FF92CF93DF93EC010A
:1010F0006A017B01B22EE889F98982E0808341157B
:1011000081EE580761057105A1F060E079E08DE39B
:1011100090E0A70196010E945E0D2150310941091E
:1011200051095695479537952795211580E1380740
:1011300098F0E889F989108260E874E88EE190E01F
:10114000A70196010E945E0D215031094109510904
:101150005695479537952795EC85FD853083EE8527
:10116000FF852083188EEC89FD89B082EA89FB898E
:10117000808180618083EA89FB89808188608083A7
:10118000EA89FB89808180688083EA89FB89808184
:101190008F7D8083DF91CF91FF90EF90DF90CF9094
:1011A000BF9008951F920F920FB60F9211242F93A4
:1011B0008F939F93EF93FF93E0919D03F0919E0394
:1011C0008081E091A303F091A40382FD12C090817D
:1011D0008091A6038F5F8F732091A703821751F030
:1011E000E091A603F0E0E357FC4F958F8093A603B0
:1011F00001C08081FF91EF919F918F912F910F906E
:101200000FBE0F901F9018951F920F920FB60F925E
:1012100011242F933F934F935F936F937F938F93FB
:101220009F93AF93BF93EF93FF938DE893E00E945A
:10123000C807FF91EF91BF91AF919F918F917F91DF
:101240006F915F914F913F912F910F900FBE0F9033
:101250001F9018958DE893E00E948D0721E0892B5F
:1012600009F420E0822F08951092900310928F03CA
:1012700088EE93E0A0E0B0E0809391039093920316
:10128000A0939303B09394038BE991E090938E0322
:1012900080938D0385EC90E090939A03809399035B
:1012A00084EC90E090939C0380939B0380EC90E00F
:1012B00090939E0380939D0381EC90E09093A00314
:1012C00080939F0382EC90E09093A2038093A1030C
:1012D00086EC90E09093A4038093A3031092A6035E
:1012E0001092A7031092A8031092A90308950895DD
:1012F0000E949D060E9477090E948C00CAEBD7E0ED
:101300000E94E3002097E1F30E94BA07F9CFCF9241
:10131000DF92EF92FF920F931F93CF93DF937C01A5
:101320006A01EB0100E010E00C151D0571F06991F8
:10133000D701ED91FC910190F081E02DC701099555
:10134000892B19F00F5F1F4FEFCFC801DF91CF91AD
:101350001F910F91FF90EF90DF90CF90089561154E
:10136000710581F0DB010D900020E9F7AD014150DE
:101370005109461B570BDC01ED91FC910280F38172
:10138000E02D099480E090E008950C94AF09DC0111
:10139000ED91FC910190F081E02D09946CE471E0F5
:1013A0000C94AF090F931F93CF93DF93EC010E942E
:1013B000AF098C01CE010E94CE09800F911FDF91F1
:1013C000CF911F910F9108958F929F92AF92BF92EC
:1013D000DF92EF92FF920F931F93CF93DF93CDB7DE
:1013E000DEB7A1970FB6F894DEBF0FBECDBF7C016C
:1013F000F42FD52ECB0119A2223008F42AE08E0159
:101400000F5D1F4F822E912CA12CB12C6F2F7D2DA3
:10141000A50194010E945E0DF22FD32ECA01015046
:1014200011096A3014F4E0E301C0E7E3E60FD801E4
:10143000EC93232B242B252B49F7B801C7010E94DD
:10144000AF09A1960FB6F894DEBF0FBECDBFDF91F6
:10145000CF911F910F91FF90EF90DF90BF90AF90D1
:101460009F908F900895CF92DF92EF92FF920F930B
:101470001F93CF93DF93EC016A017B0121153105A6
:1014800079F4E881F9810190F081E02D642FDF91FA
:10149000CF911F910F91FF90EF90DF90CF90099423
:1014A0002A303105E9F477FF1AC06DE20E94C709BE
:1014B0008C0144275527BA014C195D096E097F0933
:1014C0002AE0CE010E94E409800F911FDF91CF91A5
:1014D0001F910F91FF90EF90DF90CF9008952AE039
:1014E000B701A601CE01DF91CF911F910F91FF901F
:1014F000EF90DF90CF900C94E4099A01AB0166273E
:1015000057FD6095762F0C94330A2115310541F46F
:10151000DC01ED91FC910190F081E02D642F0994A4
:101520000C94E4099A01462F50E060E070E00C94BE
:10153000850A4F925F926F927F92AF92BF92CF9245
:10154000DF92EF92FF920F931F93CF93DF93CDB76C
:10155000DEB729013A01621B730B840B950B2989B5
:101560003A894B895C892A193B094C095D09298B09
:101570003A8B4B8B5C8B9B01AC0169897A898B8997
:101580009C890E94420DE418F50806091709A80174
:1015900097010E94800D2A0D3B1D4C1D5D1DCA0147
:1015A000B901DF91CF911F910F91FF90EF90DF90E4
:1015B000CF90BF90AF907F906F905F904F900895C5
:1015C000FC01808191810C94570ECF93DF93EC0145
:1015D00088819981009711F00E94570E1982188214
:1015E0001D821C821B821A82DF91CF9108950F9376
:1015F0001F93CF93DF93EC018B016F5F7F4F888147
:1016000099810E94E60E009731F0998388831B83AD
:101610000A8381E001C080E0DF91CF911F910F919B
:101620000895CF93DF93EC0188819981892B29F06C
:101630008A819B818617970760F4CE010E94F70A82
:10164000882341F08C819D81892B19F4E881F981EF
:10165000108281E0DF91CF910895EF92FF920F9376
:101660001F93CF93DF93EC017B018A01BA010E94A3
:10167000110B811104C0CE010E94E50A07C01D8331
:101680000C83B701888199810E94B90FCE01DF9147
:10169000CF911F910F91FF90EF900895FC0111825F
:1016A000108213821282158214826115710559F01D
:1016B000FB0101900020E9F7AF0141505109461BA1
:1016C000570B0C942D0B0895EF92FF920F931F93DD
:1016D000CF93DF93EC017B010C811D8161157105B6
:1016E00011F480E016C04115510591F0040F151F4B
:1016F000B8010E94110B8823A1F3288139818C81C4
:101700009D81B701820F931F0E94B90F1D830C8327
:1017100081E0DF91CF911F910F91FF90EF9008959D
:101720006115710559F0FB0101900020E9F7AF0147
:1017300041505109461B570B0C94640B80E00895EF
:10174000EF92FF920F931F93CF93DF93CDB7DEB746
:1017500028970FB6F894DEBF0FBECDBF7C01CB013A
:101760004AE08E010F5F1F4FB8010E94C00FF801C1
:1017700001900020E9F7AF0141505109401B510B86
:10178000B801C7010E94640B28960FB6F894DEBF1B
:101790000FBECDBFDF91CF911F910F91FF90EF90C2
:1017A000089508955058BB27AA270ED077C068D057
:1017B00030F06DD020F031F49F3F11F41EF45DC085
:1017C0000EF4E095E7FB53C0E92F79D080F3BA1708
:1017D000620773078407950718F071F49EF591C0AE
:1017E0000EF4E0950B2EBA2FA02D0B01B90190013C
:1017F0000C01CA01A0011124FF27591B99F0593F80
:1018000050F4503E68F11A16F040A22F232F342FC7
:101810004427585FF3CF469537952795A795F04015
:101820005395C9F77EF41F16BA0B620B730B840B2A
:10183000BAF09150A1F0FF0FBB1F661F771F881FE2
:10184000C2F70EC0BA0F621F731F841F48F487953A
:1018500077956795B795F7959E3F08F0B3CF939529
:10186000880F08F09927EE0F97958795089597F9B7
:101870009F6780E870E060E008959FEF80EC089536
:1018800000240A941616170618060906089500245F
:101890000A9412161306140605060895092E0394D9
:1018A000000C11F4882352F0BB0F40F4BF2B11F44D
:1018B00060FF04C06F5F7F4F8F4F9F4F089557FDAC
:1018C0009058440F551F59F05F3F71F04795880FAE
:1018D00097FB991F61F09F3F79F087950895121645
:1018E00013061406551FF2CF4695F1DF08C01616F1
:1018F00017061806991FF1CF8695710561050894A2
:101900000895E894BB2766277727CB0197F90895B8
:101910000BD0C4CFB5DF28F0BADF18F0952309F05B
:10192000A6CFABCF1124EECFCADFA0F3959FD1F3A2
:10193000950F50E0551F629FF001729FBB27F00D7D
:10194000B11D639FAA27F00DB11DAA1F649F6627D2
:10195000B00DA11D661F829F2227B00DA11D621F21
:10196000739FB00DA11D621F839FA00D611D221FDB
:10197000749F3327A00D611D231F849F600D211DBF
:10198000822F762F6A2F11249F5750408AF0E1F062
:1019900088234AF0EE0FFF1FBB1F661F771F881FAB
:1019A00091505040A9F79E3F510570F060CFAACFEB
:1019B0005F3FECF3983EDCF3869577956795B79596
:1019C000F795E7959F5FC1F7FE2B880F911D9695C0
:1019D000879597F9089511F40EF44FCF3EC077DF45
:1019E000D0F39923D9F3CEF39F57550B87FF43D0FC
:1019F0000024A0E640EA900180585695979528F477
:101A0000805C660F771F881F20F02617370748076E
:101A100030F4621B730B840B202931294A2BA695C5
:101A200017940794202531254A2758F7660F771F0A
:101A3000881F20F026173707480730F4620B730B16
:101A4000840B200D311D411DA09581F7B901842F14
:101A50009158880F9695879508959F3F31F0915042
:101A600020F4879577956795B795880F911D969582
:101A7000879597F9089591505040660F771F881FFA
:101A8000D2F70895DB018F939F930E949F0DBF9122
:101A9000AF91A29F800D911DA39F900DB29F900DBD
:101AA00011240895991B79E004C0991F961708F036
:101AB000961B881F7A95C9F780950895A1E21A2E82
:101AC000AA1BBB1BFD010DC0AA1FBB1FEE1FFF1FE2
:101AD000A217B307E407F50720F0A21BB30BE40B32
:101AE000F50B661F771F881F991F1A9469F7609579
:101AF0007095809590959B01AC01BD01CF01089533
:101B0000052E97FB1EF400940E94970D57FD07D0F9
:101B10000E945E0D07FC03D04EF40C94970D509577
:101B20004095309521953F4F4F4F5F4F08959095C9
:101B30008095709561957F4F8F4F9F4F08950E94BC
:101B4000B00DA59F900DB49F900DA49F800D911D89
:101B500011240895EE0FFF1F0590F491E02D0994D4
:101B6000A29FB001B39FC001A39F700D811D1124DE
:101B7000911DB29F700D811D1124911D0895CF9369
:101B8000DF938230910510F482E090E0E0912C0424
:101B9000F0912D0420E030E0A0E0B0E0309739F182
:101BA0004081518148175907B8F04817590771F417
:101BB00082819381109729F013969C938E931297AC
:101BC0002CC090932D0480932C0427C0211531053F
:101BD00031F04217530718F0A901DB0101C0EF01F2
:101BE0009A01BD01DF010280F381E02DD7CF2115DD
:101BF0003105F9F0281B390B2430310580F48A8136
:101C00009B816115710521F0FB019383828304C0E0
:101C100090932D0480932C04FE01329644C0FE0163
:101C2000E20FF31F81939193225031093983288366
:101C30003AC020912A0430912B04232B41F42091A7
:101C400002013091030130932B0420932A04209148
:101C50000001309101012115310541F42DB73EB746
:101C60004091040150910501241B350BE0912A0499
:101C7000F0912B04E217F307A0F42E1B3F0B28175B
:101C8000390778F0AC014E5F5F4F2417350748F0F5
:101C90004E0F5F1F50932B0440932A04819391931E
:101CA00002C0E0E0F0E0CF01DF91CF910895CF9343
:101CB000DF93009709F487C0FC01329713821282E8
:101CC000C0912C04D0912D04209781F42081318182
:101CD000280F391F80912A0490912B0482179307B3
:101CE00079F5F0932B04E0932A046DC0DE0120E027
:101CF00030E0AE17BF0750F412964D915C911397E8
:101D00009D014115510509F1DA01F3CFB383A28397
:101D100040815181840F951F8A179B0771F48D9123
:101D20009C911197840F951F029691838083129640
:101D30008D919C911397938382832115310529F40A
:101D4000F0932D04E0932C043EC0D9011396FC932C
:101D5000EE9312974D915D91A40FB51FEA17FB0703
:101D600079F480819181840F951F0296D901119693
:101D70009C938E938281938113969C938E9312975A
:101D8000E0E0F0E08A819B81009719F0FE01EC0110
:101D9000F9CFCE01029628813981820F931F2091BD
:101DA0002A0430912B042817390769F4309729F455
:101DB00010922D0410922C0402C013821282D09330
:101DC0002B04C0932A04DF91CF910895A0E0B0E0E6
:101DD000ECEEFEE00C94F90FEC01CB01209719F426
:101DE0000E94BF0DB8C0FE01E60FF71F9E012250F2
:101DF0003109E217F30708F4ACC0D9010D911C9129
:101E0000119706171707B8F00530110508F49FC0A1
:101E1000A801445051094617570708F498C00250CA
:101E20001109061B170B019311936D937C93CF013E
:101E30000E94570E8CC05B01A01AB10A4E01800EA1
:101E4000911EA0912C04B0912D04612C712C60E0A6
:101E500070E0109709F449C0A815B905C9F5ED90CF
:101E6000FC901197670142E0C40ED11CCA14DB0438
:101E700078F147018A189B08640142E0C40ED11C26
:101E80001296BC9012971396AC91B5E0CB16D10484
:101E900040F0B282A38391828082D9018D939C937A
:101EA00009C00E5F1F4F0E0D1F1DF9011183008326
:101EB000EB2DFA2F6115710531F0DB011396FC93C0
:101EC000EE93129744C0F0932D04E0932C043FC08E
:101ED0006D917C9111976616770608F43B01BD0160
:101EE00012960D90BC91A02DB4CF60912A047091F0
:101EF0002B0468157905E9F468167906D0F4409149
:101F00000001509101014115510541F44DB75EB7F3
:101F10006091040170910501461B570BE417F5070A
:101F2000C0F4F0932B04E0932A04F9019183808399
:101F30000EC00E94BF0D7C01009759F0A801BE01A0
:101F40000E94B00FCE010E94570EC70104C0CE01FF
:101F500002C080E090E0CDB7DEB7EEE00C94151043
:101F6000FB01DC0102C001900D9241505040D8F7B6
:101F70000895FB01DC0101900D920020E1F7089526
:101F8000BB274A3031F4992322F4BDE29095819524
:101F90009F4F0C94CC0FBB27FB015527AA27880F16
:101FA000991FAA1FA41710F0A41B83955051B9F7CD
:101FB000A05DAA3308F0A95DA193009779F7B1114C
:101FC000B1931192CB010C94E50FDC01FC01672F5A
:101FD00071917723E1F7329704C07C916D93708300
:101FE0006291AE17BF07C8F308952F923F924F92A8
:101FF0005F926F927F928F929F92AF92BF92CF9299
:10200000DF92EF92FF920F931F93CF93DF93CDB7A1
:10201000DEB7CA1BDB0B0FB6F894DEBF0FBECDBF19
:1020200009942A88398848885F846E847D848C84EA
:102030009B84AA84B984C884DF80EE80FD800C81F3
:102040001B81AA81B981CE0FD11D0FB6F894DEBFD6
:0C2050000FBECDBFED010895F894FFCF46
:10205C0000002E0480000100000010000F000E0094
:10206C0001564D4450565F317C315F564D445056AD
:10207C000D0A0068656C6C6F00564D4450455F311D
:10208C00007C005F564D4450450D0A002C20005634
:10209C004D4450435F005F564D4450430D0A00457C
:1020AC0072726F723A20417474656D707420746F23
:1020BC0020736574206120726561642D6F6E6C797C
:1020CC00207661726961626C65206F722064617444
:1020DC00612074797065206E6F7420737570706FE9
:1020EC00727465640D0A00000000000B0887098DEE
:1020FC0007A6079807E9076E616E00696E66006FA8
:06210C007666002E0000C3
:00000001FF
