:100000000C945E000C9486000C9486000C94860080
:100010000C9486000C9486000C9486000C94860048
:100020000C9486000C9486000C9486000C94250198
:100030000C9486000C9486000C9486000C94860028
:100040000C947F070C9486000C94A8040C94DA049A
:100050000C9486000C9486000C9486000C94860008
:100060000C9486000C948600000000080002010039
:100070000003040700000000000000000102040863
:100080001020408001020408102001020408102002
:10009000040404040404040402020202020203032E
:1000A0000303030300000000250028002B000000CC
:1000B0000000240027002A00F9000A0511241FBEB1
:1000C000CFEFD8E0DEBFCDBF11E0A0E0B1E0E4E7C4
:1000D000F5E102C005900D92A433B107D9F722E0F3
:1000E000A4E3B1E001C01D92A730B207E1F710E030
:1000F000CCEBD0E004C02297FE010E944008C83B30
:10010000D107C9F70E944E050C94B80A0C94000060
:1001100026E040E051EE60E070E08DE591E00E9465
:1001200046046CE071E08DE591E00E94A60561E077
:1001300080910A010E94F4022CE83AE044EF51E079
:1001400063E070E084E391E00E94FD0184E391E0CC
:100150000E94AE024AE050E0BC018DE591E00E94B1
:10016000510684E391E00E94AE024AE050E0BC01F7
:100170008DE591E00E94510684E391E00E94AE0279
:100180004AE050E0BC018DE591E00C9451060F93DC
:100190001F93CF93DF938C0184E391E00E94AE0222
:1001A000EC01C017D10701F1BE01C017D10718F447
:1001B0006F5F7F4F02C06150710984E391E00E943C
:1001C0007B0284E391E00E94AE02EC014AE050E041
:1001D000BC018DE591E00E9451068FE891E0019706
:1001E000F1F700C00000DDCFDF91CF911F910F919B
:1001F000089584E391E00C94E101CF93DF9300D064
:1002000000D000D0CDB7DEB78DE591E00E9463034A
:10021000181619068CF46DE571E0CE0101960E9466
:100220009706CE0101960E947407CB010E94C70079
:10023000CE0101960E94B10626960FB6F894DEBF55
:100240000FBECDBFDF91CF9108951F920F920FB6D1
:100250000F9211242F933F934F935F936F937F934C
:100260008F939F93AF93BF93EF93FF938091380148
:1002700087FF05C010928500109284001AC020915B
:100280003801332727FD30958091370190E02817FA
:1002900039077CF480913801992787FD9095FC01FE
:1002A000EE0FFF1FE80FF91FE75CFE4F808186FD10
:1002B00015C0809138018F5F8093380120913801FB
:1002C000332727FD30958091370190E028173907B3
:1002D000BCF4809138018C305CF112C080913801FF
:1002E000992787FD9095FC01EE0FFF1FE80FF91F7E
:1002F000E75CFE4F808160E08F730E942D03D9CFB1
:100300008091840090918500049680349C4918F473
:1003100080E49CE905C0809184009091850004965A
:1003200090938900809388008FEF8093380138C0C4
:10033000209184003091850080913801992787FDB4
:100340009095FC01EE0FFF1FE80FF91FE75CFE4FD1
:1003500081819281820F931F9093890080938800FE
:1003600080913801992787FD9095FC01EE0FFF1FC2
:10037000E80FF91FE75CFE4F808186FF11C0809176
:100380003801992787FD9095FC01EE0FFF1FE80FBC
:10039000F91FE75CFE4F808161E08F730E942D039F
:1003A000FF91EF91BF91AF919F918F917F916F914D
:1003B0005F914F913F912F910F900FBE0F901F9023
:1003C0001895209137012C30A0F431E0320F309392
:1003D0003701FC012083822F90E0FC01EE0FFF1F0C
:1003E000E80FF91FE75CFE4F88EB9BE09283818367
:1003F00008952FEFFC0120830895DF92EF92FF9282
:100400000F931F93CF93DF93EC01D62E7A018901CE
:1004100088818C3008F066C061E08D2D0E94F40266
:100420008881A82FB0E0FD01EE0FFF1FEA0FFB1F30
:10043000E75CFE4F2D2D2F739081907C922B908343
:1004400060E272E06E197F0977FF02C06D5F7F4F37
:100450007595679575956795698340E659E0401BEA
:10046000510B57FF02C04D5F5F4F5595479555950E
:1004700047954A836CE00E9410089CE0899FB00178
:10048000112420E030E0A901460F571FFA01EE0FBA
:10049000FF1FE40FF51FE75CFE4F908196FD16C02D
:1004A0002F5F3F4F2C30310571F781110FC0109233
:1004B000800082E080938100109285001092840079
:1004C000B19A80916F00826080936F00888190E084
:1004D000FC01EE0FFF1FE80FF91FE75CFE4F808164
:1004E000806480838881DF91CF911F910F91FF906D
:1004F000EF90DF900895FC0180818C3070F5918140
:1005000028E830E0291B310997FD3395220F331F6E
:10051000220F331F621773077CF0928128E532E0C7
:10052000291B310997FD3395220F331F220F331FEB
:10053000621773070CF49B0122503109220F331FFD
:100540004FB7F89490E0FC01EE0FFF1FE80FF91F82
:10055000E75CFE4F328321834FBF0895FC01808109
:100560008F3FB1F090E0FC01EE0FFF1FE80FF91F85
:10057000E75CFE4F8181928143E0880F991F4A9585
:10058000E1F754E0969587955A95E1F7029608951C
:1005900080E090E00895833081F028F4813099F074
:1005A0008230A1F008958730A9F08830B9F0843006
:1005B000D1F4809180008F7D03C0809180008F777F
:1005C00080938000089584B58F7702C084B58F7DB5
:1005D00084BD08958091B0008F7703C08091B000F2
:1005E0008F7D8093B0000895CF93DF9390E0FC015E
:1005F000E458FF4F2491FC01E057FF4F849188237A
:1006000049F190E0880F991FFC01E255FF4FA59139
:10061000B4918C559F4FFC01C591D4919FB7611146
:1006200008C0F8948C91209582238C938881822332
:100630000AC0623051F4F8948C91322F30958323A4
:100640008C938881822B888304C0F8948C91822BB0
:100650008C939FBFDF91CF9108950F931F93CF93FA
:10066000DF931F92CDB7DEB7282F30E0F901E859AC
:10067000FF4F8491F901E458FF4F1491F901E057BD
:10068000FF4F04910023C9F0882321F069830E9461
:10069000CB026981E02FF0E0EE0FFF1FEC55FF4F1A
:1006A000A591B4919FB7F8948C91611103C01095F6
:1006B000812301C0812B8C939FBF0F90DF91CF913D
:1006C0001F910F910895FC01818D228D90E0805C37
:1006D0009F4F821B91098F7399270895FC01918D7B
:1006E000828D981731F0828DE80FF11D858D90E095
:1006F00008958FEF9FEF0895FC01918D828D9817DB
:1007000061F0828DDF01A80FB11D5D968C91928DF5
:100710009F5F9F73928F90E008958FEF9FEF0895F2
:1007200080E095E0892B49F080E090E0892B29F06A
:100730000E94000581110C9400000895FC01848D35
:10074000DF01A80FB11DA35ABF4F2C91848D90E0FB
:1007500001968F739927848FA689B7892C93A089D6
:10076000B1898C9180648C93938D848D981306C08D
:100770000288F389E02D80818F7D80830895CF9357
:10078000DF93EC01888D8823C9F0EA89FB89808199
:1007900085FD05C0A889B9898C9186FD0FC00FB66B
:1007A00007FCF5CF808185FFF2CFA889B9898C91AC
:1007B00085FFEDCFCE010E949E03E7CFDF91CF9161
:1007C0000895CF92DF92FF920F931F93CF93DF9301
:1007D0001F92CDB7DEB76C0181E0D60158968C939D
:1007E00058975B969C915B975C968C915C9798135D
:1007F00007C05096ED91FC915197808185FD2EC0E8
:10080000F601038D10E00F5F1F4F0F731127F02EBD
:10081000F601848DF81211C00FB607FCF9CFD6018E
:100820005096ED91FC915197808185FFF1CFC601E3
:1008300069830E949E036981EBCF838DE80FF11DD0
:10084000E35AFF4F6083D6015B960C935B975296F9
:10085000ED91FC915397808180620CC0D601569631
:10086000ED91FC91579760835096ED91FC915197D3
:1008700080818064808381E090E00F90DF91CF9150
:100880001F910F91FF90DF90CF900895BF92CF926C
:10089000DF92EF92FF92CF93DF93EC016A017B012D
:1008A000B22EE889F98982E08083411581EE5807EC
:1008B00061057105A1F060E079E08DE390E0A701AA
:1008C00096010E941C082150310941095109569591
:1008D000479537952795211580E1380798F0E889E5
:1008E000F989108260E874E88EE190E0A701960132
:1008F0000E941C082150310941095109569547951C
:1009000037952795EC85FD853083EE85FF8520831F
:10091000188EEC89FD89B082EA89FB89808180612B
:100920008083EA89FB89808188608083EA89FB89EA
:10093000808180688083EA89FB8980818F7D8083C4
:10094000DF91CF91FF90EF90DF90CF90BF9008950F
:100950001F920F920FB60F9211242F938F939F9394
:10096000EF93FF93E0916D01F0916E018081E09132
:100970007301F091740182FD12C090818091760123
:100980008F5F8F7320917701821751F0E09176018C
:10099000F0E0E35AFE4F958F8093760101C080818D
:1009A000FF91EF919F918F912F910F900FBE0F901C
:1009B0001F9018951F920F920FB60F9211242F932C
:1009C0003F934F935F936F937F938F939F93AF93D7
:1009D000BF93EF93FF938DE591E00E949E03FF91FB
:1009E000EF91BF91AF919F918F917F916F915F91A7
:1009F0004F913F912F910F900FBE0F901F90189520
:100A00008DE591E00E94630321E0892B09F420E049
:100A1000822F08951092600110925F0188EE93E09A
:100A2000A0E0B0E08093610190936201A093630124
:100A3000B093640186E191E090935E0180935D0143
:100A400085EC90E090936A018093690184EC90E0DA
:100A500090936C0180936B0180EC90E090936E0119
:100A600080936D0181EC90E09093700180936F0111
:100A700082EC90E0909372018093710186EC90E09B
:100A80009093740180937301109276011092770114
:100A90001092780110927901089508950E94D50767
:100AA0000E944D050E948800C0E9D3E00E94FD002D
:100AB0002097E1F30E949003F9CFCF92DF92EF925B
:100AC000FF920F931F93CF93DF937C016A01EB0199
:100AD00000E010E00C151D0571F06991D701ED9152
:100AE000FC910190F081E02DC7010995892B19F047
:100AF0000F5F1F4FEFCFC801DF91CF911F910F9173
:100B0000FF90EF90DF90CF9008956115710581F00F
:100B1000DB010D900020E9F7AD0141505109461B62
:100B2000570BDC01ED91FC910280F381E02D0994DB
:100B300080E090E00895DC01ED91FC910190F0815E
:100B4000E02D099462E271E00C9485050F931F93E8
:100B5000CF93DF93EC010E9485058C01CE010E94AA
:100B6000A205800F911FDF91CF911F910F910895E2
:100B70008F929F92AF92BF92DF92EF92FF920F936C
:100B80001F93CF93DF93CDB7DEB7A1970FB6F8943D
:100B9000DEBF0FBECDBF7C01F42FD52ECB0119A235
:100BA000223008F42AE08E010F5D1F4F822E912C17
:100BB000A12CB12C6F2F7D2DA50194010E941C0842
:100BC000F22FD32ECA01015011096A3014F4E0E368
:100BD00001C0E7E3E60FD801EC93232B242B252B50
:100BE00049F7B801C7010E948505A1960FB6F89490
:100BF000DEBF0FBECDBFDF91CF911F910F91FF9050
:100C0000EF90DF90BF90AF909F908F900895CF921C
:100C1000DF92EF92FF920F931F93CF93DF93EC013C
:100C20006A017B012115310579F4E881F981019090
:100C3000F081E02D642FDF91CF911F910F91FF90F4
:100C4000EF90DF90CF9009942A303105E9F477FFD7
:100C50001AC06DE20E949B058C0144275527BA01FA
:100C60004C195D096E097F092AE0CE010E94B80582
:100C7000800F911FDF91CF911F910F91FF90EF9007
:100C8000DF90CF9008952AE0B701A601CE01DF9151
:100C9000CF911F910F91FF90EF90DF90CF900C9428
:100CA000B8050F931F93CF93DF93EC019A01AB012B
:100CB000662757FD6095762F0E9407068C01CE01AE
:100CC0000E94A205800F911FDF91CF911F910F917C
:100CD00008950F931F93CF93DF93EC010E94C907F0
:100CE000688779878A879B87E881F9810680F78101
:100CF000E02DCE01099597FF15C00E94C907088510
:100D000019852A853B85601B710B820B930B0C8127
:100D10001D812E813F81601771078207930720F3A1
:100D20008FEF9FEFDF91CF911F910F9108950F9358
:100D30001F93CF93DF93EC018B0164E271E00E947B
:100D40001F07C8010E94690697FD05C0682FCE01E4
:100D50000E946107F6CFCE01DF91CF911F910F91D5
:100D60000895FC01808191810C94DC08CF93DF937E
:100D7000EC0188819981009711F00E94DC081982AA
:100D800018821D821C821B821A82DF91CF910895E6
:100D90000F931F93CF93DF93EC018B016F5F7F4F16
:100DA000888199810E946B09009731F0998388832B
:100DB0001B830A8381E001C080E0DF91CF911F9106
:100DC0000F910895CF93DF93EC0188819981892B4E
:100DD00029F08A819B818617970760F4CE010E94D3
:100DE000C806882341F08C819D81892B19F4E88104
:100DF000F981108281E0DF91CF910895EF92FF9207
:100E00000F931F93CF93DF93EC017B018A01BA010B
:100E10000E94E206811104C0CE010E94B60607C0FE
:100E20001D830C83B701888199810E94650ACE01D8
:100E3000DF91CF911F910F91FF90EF900895FC01EA
:100E4000118210821382128215821482611571053B
:100E500059F0FB0101900020E9F7AF014150510921
:100E6000461B570B0C94FE060895EF92FF920F93CA
:100E70001F93CF93DF93EC017B010C811D816115E2
:100E8000710511F480E016C04115510591F0040F71
:100E9000151FB8010E94E2068823A1F32881398139
:100EA0008C819D81B701820F931F0E94650A1D836B
:100EB0000C8381E0DF91CF911F910F91FF90EF9014
:100EC0000895CF93DF9300D0CDB7DEB769831A8240
:100ED00041E050E0BE016F5F7F4F0E9435070F90E9
:100EE0000F90DF91CF910895FC018081918100974F
:100EF00011F00C94350A60E070E0CB0108951F9268
:100F00000F920FB60F9211242F933F938F939F93BD
:100F1000AF93BF938091FB019091FC01A091FD01E3
:100F2000B091FE013091FA0123E0230F2D3720F418
:100F30000196A11DB11D05C026E8230F0296A11D33
:100F4000B11D2093FA018093FB019093FC01A093C3
:100F5000FD01B093FE018091FF0190910002A091EC
:100F60000102B09102020196A11DB11D8093FF0103
:100F700090930002A0930102B0930202BF91AF913F
:100F80009F918F913F912F910F900FBE0F901F90C7
:100F900018952FB7F8946091FB017091FC01809136
:100FA000FD019091FE012FBF0895789484B5826071
:100FB00084BD84B5816084BD85B5826085BD85B5FD
:100FC000816085BDEEE6F0E0808181608083E1E8AC
:100FD000F0E01082808182608083808181608083E4
:100FE000E0E8F0E0808181608083E1EBF0E08081E7
:100FF00084608083E0EBF0E0808181608083EAE7B9
:10100000F0E0808184608083808182608083808141
:10101000816080838081806880831092C100089500
:10102000991B79E004C0991F961708F0961B881F3A
:101030007A95C9F780950895A1E21A2EAA1BBB1BC9
:10104000FD010DC0AA1FBB1FEE1FFF1FA217B30794
:10105000E407F50720F0A21BB30BE40BF50B661FAA
:10106000771F881F991F1A9469F76095709580956E
:1010700090959B01AC01BD01CF010895EE0FFF1FBC
:101080000590F491E02D0994CF93DF938230910580
:1010900010F482E090E0E0910502F091060220E079
:1010A00030E0A0E0B0E0309739F14081518148173D
:1010B0005907B8F04817590771F482819381109746
:1010C00029F013969C938E9312972CC0909306024E
:1010D0008093050227C02115310531F042175307CF
:1010E00018F0A901DB0101C0EF019A01BD01DF0188
:1010F0000280F381E02DD7CF21153105F9F0281BAF
:10110000390B2430310580F48A819B81611571058A
:1011100021F0FB019383828304C0909306028093A5
:101120000502FE01329644C0FE01E20FF31F8193D7
:10113000919322503109398328833AC020910302C8
:1011400030910402232B41F42091020130910301DC
:101150003093040220930302209100013091010199
:101160002115310541F42DB73EB74091040150914E
:101170000501241B350BE0910302F0910402E217F4
:10118000F307A0F42E1B3F0B2817390778F0AC01AA
:101190004E5F5F4F2417350748F04E0F5F1F509387
:1011A0000402409303028193919302C0E0E0F0E0D7
:1011B000CF01DF91CF910895CF93DF93009709F48A
:1011C00087C0FC01329713821282C0910502D09130
:1011D0000602209781F420813181280F391F8091E8
:1011E0000302909104028217930779F5F0930402A9
:1011F000E09303026DC0DE0120E030E0AE17BF07D0
:1012000050F412964D915C9113979D014115510533
:1012100009F1DA01F3CFB383A28340815181840FB6
:10122000951F8A179B0771F48D919C911197840FDC
:10123000951F02969183808312968D919C911397AE
:10124000938382832115310529F4F0930602E093FC
:1012500005023EC0D9011396FC93EE9312974D916F
:101260005D91A40FB51FEA17FB0779F48081918186
:10127000840F951F0296D90111969C938E938281BB
:10128000938113969C938E931297E0E0F0E08A810D
:101290009B81009719F0FE01EC01F9CFCE01029677
:1012A00028813981820F931F20910302309104021B
:1012B0002817390769F4309729F410920602109222
:1012C000050202C013821282D0930402C09303026B
:1012D000DF91CF910895A0E0B0E0E1E7F9E00C9450
:1012E000850AEC01CB01209719F40E944408B8C08C
:1012F000FE01E60FF71F9E0122503109E217F307A6
:1013000008F4ACC0D9010D911C911197061717076D
:10131000B8F00530110508F49FC0A80144505109E8
:101320004617570708F498C002501109061B170BFF
:10133000019311936D937C93CF010E94DC088CC0C4
:101340005B01A01AB10A4E01800E911EA091050208
:10135000B0910602612C712C60E070E0109709F4E6
:1013600049C0A815B905C9F5ED90FC901197670122
:1013700042E0C40ED11CCA14DB0478F147018A187C
:101380009B08640142E0C40ED11C1296BC901297D7
:101390001396AC91B5E0CB16D10440F0B282A38392
:1013A00091828082D9018D939C9309C00E5F1F4F5B
:1013B0000E0D1F1DF90111830083EB2DFA2F61150E
:1013C000710531F0DB011396FC93EE93129744C044
:1013D000F0930602E09305023FC06D917C91119756
:1013E0006616770608F43B01BD0112960D90BC917C
:1013F000A02DB4CF609103027091040268157905A5
:10140000E9F468167906D0F4409100015091010189
:101410004115510541F44DB75EB7609104017091DB
:101420000501461B570BE417F507C0F4F0930402BF
:10143000E0930302F901918380830EC00E94440867
:101440007C01009759F0A801BE010E945C0ACE0100
:101450000E94DC08C70104C0CE0102C080E090E019
:10146000CDB7DEB7EEE00C94A10A1F93FC019927DB
:101470008827BC01E89411911032E9F3193010F07B
:101480001E30C8F31B3251F01D3249F4689406C077
:101490000E946C0A610F711D811D911D11911053E5
:1014A0001A30B0F33EF490958095709561957F4F1A
:1014B0008F4F9F4F1F910895FB01DC0102C00190E7
:1014C0000D9241505040D8F70895FB01DC01019086
:1014D0000D920020E1F70895592F482F372F262F1E
:1014E000660F771F881F991F660F771F881F991F28
:1014F000620F731F841F951F660F771F881F991F28
:1015000008952F923F924F925F926F927F928F92A7
:101510009F92AF92BF92CF92DF92EF92FF920F9382
:101520001F93CF93DF93CDB7DEB7CA1BDB0B0FB68C
:10153000F894DEBF0FBECDBF09942A883988488849
:101540005F846E847D848C849B84AA84B984C884DF
:10155000DF80EE80FD800C811B81AA81B981CE0FD6
:10156000D11D0FB6F894DEBF0FBECDBFED010895BB
:04157000F894FFCF1D
:10157400000007028000010000000D0068656C6C2B
:101584006F0000000000E1035D0563037C036E034C
:10159400BF030D0A006E616E00696E66006F7666A9
:0415A400002E000015
:00000001FF
